:020000040800F2
:10000000C00A0020D9000008A90A0008D504000889
:1000100000000000000000000000000000000000E0
:10002000000000000000000000000000E30F0008D6
:100030000000000000000000950B0008911100086E
:10004000EB000008EB000008EB000008EB000008E4
:10005000EB00000849030008EB0000087D030008DE
:10006000EB000008EB000008EB000008EB000008C4
:10007000EB000008EB000008EB000008EB000008B4
:10008000EB000008EB00000800000000EB00000897
:10009000EB000008EB00000875130008EB000008F7
:1000A000EB000008EB000008EB00000899150008C1
:1000B000A915000800000000EB0000080000000087
:1000C0000448854600F06EF800480047A523000864
:1000D000C046C046C00A0020044880470448004784
:1000E000FEE7FEE7FEE7FEE7FEE7FEE7F5120008A3
:1000F000C100000830B50B46014600202022012433
:1001000009E00D46D5409D4205D31D469540491B4B
:100110002546954040191546521E002DF1DC30BD94
:1001200003460B439B0703D009E008C9121F08C010
:10013000042AFAD203E00B780370401C491C521EBB
:10014000F9D27047F0B51FB40646002082B00546CC
:100150004024019100901BE0019922460F46304651
:1001600000F042F8049A059B801A994110D310467A
:100170001946224600F028F8361A8F410197224688
:1001800001200021009F00F01FF838184D41009019
:100190002046641E0028DFDC019B00982946324679
:1001A00007B0F0BD064C0125064E05E0E36807CC1C
:1001B0002B430C3C98471034B442F7D3FFF784FF2D
:1001C000102700083027000810B5202A04DB01465C
:1001D000203A9140002010BD914020239C1A0346F4
:1001E000E3401943904010BD10B5202A04DB0846B7
:1001F000203AD040002110BD0B46D340D0402024EF
:10020000A21A91400843194610BD000070B502467D
:100210000B46FF25FF2408E01178521C694007486F
:10022000405C604005460648445C18465E1EB3B21A
:100230000028F1D12802204370BD00000E250008DF
:100240000E2600080146002901D106487047012901
:1002500001D10548FAE7022901D10020F6E7002084
:10026000F4E700004C0300200405002008B51B2122
:1002700068460170002141700121817000F016FC78
:100280001C2168460170002141700121817000F03D
:100290000DFC08BD10B51BA001F072FB1AA001F007
:1002A0006FFB1AA001F06CFB002406E01C48015D06
:1002B0001CA001F065FB601CC4B219481638407DD3
:1002C000A042F3DC0FA001F05BFB0FA001F058FB94
:1002D00016A001F055FB002407E011481538015D18
:1002E00010A001F04DFB601CC4B20D481638007818
:1002F000A042F2DC03A001F043FB11A001F040FB9F
:1003000010BD00000A0D00001B5B4B0020B7A2CB04
:10031000CDB5C4C3FCC1EE203A2030780000000007
:1003200072000020202530325800000020BDD3CAC2
:10033000D5B5C4C3FCC1EE203A20307800000000DF
:100340001B5B33410000000010B5012000F040F8B5
:10035000002807D008480078C043074908700120EA
:1003600000F030F8022000F033F8002802D002201C
:1003700000F028F810BD00001D00002010B540203E
:1003800000F026F8002817D0402000F01BF800F0FD
:10039000B1FFC0200949C861002008492031088107
:1003A000C0200749C861002005492031088101218A
:1003B0000920800300F010FC10BD0000003801404F
:1003C00000440040014948617047000000040140BA
:1003D00001460020044A52690A40002A01D0012047
:1003E00000E000207047000000040140F0B50A461C
:1003F00000210023002400BF3DE001258D402B4655
:1004000015681D402C469C4234D11579012D02D02F
:100410001579022D16D185684F000326BE40B543DD
:10042000856055794E00B54086683543856085887E
:1004300001268E40B5438580858896798E40B6B278
:100440003543858005684F000326BE40B5430560EF
:1004500015794E00B540066835430560C5684F0004
:100460000326BE40B543C560D5794E00B540C66889
:100470003543C560491C1029BFD3F0BDF0B500233A
:1004800000244D07EE0E1546B5402B46CD10AE00AC
:1004900005462035AD594E07F70E0F26BE40B54331
:1004A000CE10B60007462037BD51CD10AE003D46F8
:1004B000AD591D432C46CD10AD003E467451F0BDE4
:1004C0000185704781617047002A01D0816100E099
:1004D0000185704700BFFEE710B500F00BFF00F08C
:1004E00095F800F0EBF801F0B6FD10BD00B589B04D
:1004F0000121880300F070FB01220921C806FFF7E3
:10050000BDFF01220A210920C006FFF7B7FF032023
:1005100040020790022108A801700021817001218A
:10052000C1700021417007A90920C006FFF75EFFD6
:100530004B2000020190002002900390049006904E
:100540000C20059001A92E4801F08AF82C488068FB
:10055000012108432A49886008468068C914084375
:10056000274988600121264801F026F80122254903
:10057000234801F054F80121480400F01DFB01223A
:1005800002210920C006FFF779FF0122032109207B
:10059000C006FFF773FF0C200790022108A8017026
:1005A000002181700121C1700021417007A909203B
:1005B000C006FFF71BFF4B200002019000200290B5
:1005C0000390049006900C20059001A90E4801F0BC
:1005D00047F80D488068012108430B4988600846A8
:1005E0008068C9140843084988600121064800F062
:1005F000E3FF01220349044801F011F809B000BDEE
:100600000038014005010500004400401CB50121EF
:10061000480400F0C1FA0121880400F0BDFA01216C
:10062000C80400F0B9FA01221C491D48FFF74CFF2D
:10063000012204211A48FFF747FF3C2000900121C6
:100640006846017100214171817169461448FFF7C4
:10065000CDFE0120400300900021684601714171E8
:1006600069460F48FFF7C2FE44200090012168460A
:10067000017100214171817169460948FFF7B6FE99
:100680000F20000300900121684601710021417193
:10069000817169460248FFF7A9FE1CBD40F00000C9
:1006A000000400480448008A40210840002801D185
:1006B000012070470020FCE70014004810B500F04E
:1006C00051FF10BD10B50224FF21002001F062FE91
:1006D000204601F065F9FF21022001F05BFE204673
:1006E00001F05EF9FF21042001F054FE204601F0E4
:1006F00057F9FF21062001F04DFE204601F050F988
:10070000FF21082001F046FE204601F049F9FF21B3
:100710000A2001F03FFE10BDF8B504460D46002743
:100720001EE02A462146012000F026F801F084FC54
:1007300006460CE001F08EFC304601F087FB642891
:1007400000DD05E00B48407C002800DD00E0F1E71B
:1007500000BF0848407C002800DD03E0781CC7B2D9
:10076000012FDEDB00BF0348407C002800D1F8BD2C
:100770000120FCE74601002070B506460C461546F0
:1007800000212148017101790079401CC2B21E4844
:1007900002717C38465403217C3002790079401C78
:1007A000C3B2194803717C38815421127C3002791C
:1007B0000079401CC3B2144803717C3881547C30EA
:1007C00002790079401CC3B20F4803717C3884540D
:1007D00029127C3002790079401CC3B20A480371A7
:1007E0007C3881547C3002790079401CC3B20648C1
:1007F00003717C38855400F0BBF800210248417435
:100800008573448170BD00004601002070B5064626
:100810000C46154600212048017101790079401CE1
:10082000C2B21D4802717C38465406217C300279E0
:100830000079401CC3B2184803717C3881542112DE
:100840007C3002790079401CC3B2134803717C38B4
:1008500081547C3002790079401CC3B20E48037188
:100860007C38845429127C3002790079401CC3B250
:10087000094803717C3881547C3002790079401C2E
:10088000C3B2054803717C38855400F071F800212B
:100890000148017570BD000046010020FFB581B020
:1008A00007460D4614460021304801710179007950
:1008B000401CC2B22D4802717C38475410217C3054
:1008C00002790079401CC3B2284803717C388154F6
:1008D00029127C3002790079401CC3B2234803718D
:1008E0007C3881547C3002790079401CC3B21F48A7
:1008F00003717C38855421127C3002790079401CC8
:10090000C3B21A4803717C3881547C300179007974
:10091000401CC2B2154802717C3844546006010E76
:10092000124802790079401CC3B2104803717C3828
:100930008154002612E00D4800793D2801DD05B004
:10094000F0BD0498815D094802790079401CC3B26A
:10095000064803717C388154701C86B26000B04236
:10096000E9DC00F005F800BFE9E7000046010020DF
:1009700010B5154801797C38FFF748FC84B2211284
:10098000114802790079401CC3B20F4803717C38CA
:1009900081547C3002790079401CC3B20A4803714B
:1009A0007C3884547C3001797C3800F011F806489A
:1009B0000079064948750448027901467C390348A4
:1009C0001630FFF7ADFB10BD460100205C00002093
:1009D00070B504460D462A462146012001F0B2FCBE
:1009E00070BD0000F8B504460D4600271EE02A46FB
:1009F00021460120FFF70AFF01F01EFB06460CE02E
:100A000001F028FB304601F021FA642800DD05E002
:100A10000B48007D002800DD00E0F1E700BF08483A
:100A2000007D002800DD03E0781CC7B2012FDEDB6B
:100A300000BF0348007D002800D1F8BD0120FCE77D
:100A400046010020F7B504460D4600271FE02A4660
:100A500021460120029BFFF721FF01F0EDFA064637
:100A60000CE001F0F7FA304601F0F0F9642800DDFF
:100A700005E00C48407D002800DD00E0F1E700BF04
:100A80000848407D002800DD03E0781CC7B2012F34
:100A9000DDDB00BF0348407D002800D1FEBD012002
:100AA000FCE700004601002070470000002182782A
:100AB000002A27D0184A03231B02D21803789B1060
:100AC0009B00D15802789207D30EFF229A400B4622
:100AD0009343194642789207120E03789B07DB0E68
:100AE0009A4011430C4A03231B02D21803789B102F
:100AF0009B00D1500278D306DB0E01229A40064BB0
:100B00001A6007E00278D306DB0E01229A40024BFE
:100B100080331A607047000000E100E010B5002843
:100B200019DA1A4A03071B0F083B9B089B00D2588F
:100B30008307DC0EFF23A3409A438B071B0E840719
:100B4000E40EA3401A43114B0407240F083CA408E9
:100B5000A4001A5118E00E4A03231B02D21883087E
:100B60009B00D2588307DC0EFF23A3409A438B07D8
:100B70001B0E8407E40EA3401A43054B03242402F2
:100B80001B198408A4001A5110BD00001CED00E0E0
:100B900000E100E070470000002905D0054A5269D5
:100BA0000243044B5A6104E0024A52698243014BFA
:100BB0005A61704700100240002905D0054AD269E9
:100BC0000243044BDA6104E0024AD2698243014BDA
:100BD000DA61704700100240002905D0054A926989
:100BE0000243044B9A6104E0024A92698243014B3A
:100BF0009A617047001002401948006801210843BB
:100C0000174908600846406816490840144948607A
:100C10000846006814490840114908600846006801
:100C20000121890488430E490860084640683F2135
:100C3000090488430A4948600846C06A000900015F
:100C4000C8620846006B0949084005490863084620
:100C5000406B4008400048630020886070470000F7
:100C6000001002400CB8FF08FFFFF6FEACFEF0FFDC
:100C7000FEB5044600250026002002900190009059
:100C80000027864840680C2108400546002D06D004
:100C9000042D07D0082D08D00C2D2CD128E0804839
:100CA00020602BE07E48206028E07C4840680F21CF
:100CB000890408400646794840680321C903084072
:100CC0000290B00C861C0298002803D17548374664
:100CD00047430BE07148C06A0007000F401C0190B9
:100CE0006F480199FFF706FA70430746276005E051
:100CF0006D48206002E06A48206000BF00BF67487E
:100D00004068F021084005462D096848405D009084
:100D100020680099C8406060604840680721090267
:100D2000084005462D0A6148405D009061680098C2
:100D3000C140A1605948006BFF2101310840884241
:100D400002D05B48E0600DE054484068012189030F
:100D50000840884203D0A0684008E06002E0A06834
:100D60008008E0604D48006B40210840402802D0D8
:100D70005048206102E00120C00320614748006B19
:100D800010210840102802D04548606101E0206829
:100D900060614248006B8007800F002802D1A06884
:100DA000A06119E03D48006B8007800F012802D147
:100DB0002068A06110E03948006B8007800F02288E
:100DC00002D18003A06107E03448006B8007800FE8
:100DD000032801D13248A0613048006B0321090487
:100DE0000840002802D1A068E06120E02B48006B99
:100DF00003210904084001210904884202D1206826
:100E0000E06114E02548006B03210904084001213A
:100E10004904884202D18010E06108E01F48006B5D
:100E2000032109040840884201D11D48E0611B48A4
:100E3000006B032189040840002802D1A0682062C9
:100E400020E01648006B0321890408400121890431
:100E5000884202D12068206214E01048006B032110
:100E6000890408400121C904884202D1001120628E
:100E700008E00A48006B032189040840884201D138
:100E8000074820620548006B80210840802802D076
:100E90000548606200E06762FEBD0000001002408D
:100EA00000127A0000093D00006CDC0228000020DE
:100EB000809FD5001280000010B50246002100235B
:100EC00000205111002902D10C4C23680BE00129AC
:100ED00002D10A4C236A06E0022902D1074C636A58
:100EE00001E0064C636BD106C90E01248C401C4006
:100EF000002C01D0012000E0002010BD00100240B5
:100F0000024840680C210840704700000010024071
:100F100001460020054A5068F02302469A431046D5
:100F200002460A431046014A5060704700100240D2
:100F3000002806D00649096801221143044A1160BD
:100F400005E00349096849084900014A11607047F2
:100F50000010024001460020064A506807231B0289
:100F600002469A43104602460A431046014A506020
:100F70007047000000100240002807D007490968A8
:100F8000012212061143054A116006E0034909686F
:100F9000012212069143014A11607047001002407D
:100FA000074A52687B23DB039A43054B5A601A4673
:100FB000526803460B431A43014B5A6070470000C6
:100FC0000010024001460020044A5068800880005A
:100FD00002460A431046014A506070470010024022
:100FE0007047704770B504460D46002614E0802017
:100FF0002040002802D100F091FA02E0012000F028
:101000008DFA002000F09CFA00BF012000F098FA51
:101010006006040E701CC6B2AE42E8DB70BD10B5AF
:101020000446002000F068FA00BF04218020FFF78A
:10103000D9FF08212046FFF7D5FF00BF012000F0AF
:101040005BFA10BD1CB50020019000904548006877
:101050000121090408434349086000BF4148006872
:1010600001214904084000900198401C019000981B
:10107000002804D10521090301988842EED139489E
:101080000068012149040840002802D00120009096
:1010900001E000200090009801283AD11120324947
:1010A0000860304840682F494860084640684860FA
:1010B000084640687F21C90388432A49486008469A
:1010C0004068092109040843264948600846006829
:1010D0000121090608432349086000BF2148006830
:1010E0000121490608400028F8D01E4840688008C1
:1010F00080001C494860084640680221084319499D
:10110000486000BF174840680C2108400828F9D102
:1011100026E0FFF771FD0120FFF70AFF00BF012065
:10112000FFF7CAFE0028FAD00020FFF7F1FE0020EA
:10113000FFF710FF0521C9040020FFF731FF012050
:10114000FFF71AFF00BF1920FFF7B6FE0028FAD0FC
:101150000220FFF737FF00BFFFF7D2FE0828FBD1C0
:101160001CBD00000010024000200240042806D1EF
:101170000649096904221143044A116105E0034943
:10118000096904229143014A1161704700E000E0BF
:1011900010B500F001F810BD10B522480068002815
:1011A00009D020480068401E1E490860002802D16E
:1011B00001201D490870002407E00C2161431B4AEF
:1011C000881801F069F8601CC4B20A2CF5DB1848D5
:1011D0000068401C164908600846006815498842A6
:1011E00002D100201249086001F054F8124800783A
:1011F000401CC0B2104908700A2803DB00200870A8
:1012000001F044F80D480088401C80B20B4908806A
:10121000FF21F531884204DB00200849088001F0F5
:101220003AF810BD380000203C000020900100205A
:1012300040000020FFFFFF7F5400002056000020E8
:1012400010B5002100200022254B5B680C242340B0
:101250001946002904D0042906D008292ED107E018
:10126000204B214C23602DE01E4B1F4C236029E0B6
:101270001B4B5B680F24A40423401846184B5B6883
:101280000324E40323401A46830C981C002A04D14B
:10129000164B4343144C23600FE0114B5B68012451
:1012A00064042340002B04D0104B43430E4C2360B6
:1012B00003E00C4B43430C4C236003E0094B0A4C06
:1012C000236000BF00BF064B5B68F02423401B096E
:1012D000074CE15C044B1B68CB40034C236010BD02
:1012E0000010024000127A000000002000093D00BA
:1012F0000400002010B51C480068012108431A4969
:10130000086008464068194908401749486008467F
:101310000068174908401449086008460068012120
:101320008904884310490860084640683F21090441
:1013300088430D4948600846C06A00090001C86238
:101340000846006BFF21543188430749086308466B
:10135000406B40084000486300208860FFF772FE41
:10136000FFF76EFF10BD0000001002400CB8FF0830
:10137000FFFFF6FE10B50221234800F061F80028B7
:101380000BD00221204800F049F8002202211E481B
:1013900000F069F81D480068804704211A4800F0F1
:1013A0004FF800280BD00421174800F037F800222E
:1013B0000421154800F057F81548006880470821B7
:1013C000114800F03DF800280BD008210E4800F02D
:1013D00025F8002208210C4800F045F80D48006867
:1013E00080471021084800F02BF800280BD010216E
:1013F000054800F013F800221021034800F033F8EC
:1014000005480068804710BD0048014044000020A6
:10141000480000204C00002050000020CA430282F7
:1014200070470000002904D0028801231A4302807B
:1014300003E00288014B1A4002807047FEFF000063
:1014400030B50246002000230024158A0D402B46AB
:1014500095890D402C46002B03D0002C01D0012093
:1014600000E0002030BD002A03D083890B43838134
:1014700002E083898B438381704700000022028849
:10148000154B984206D001239B07984202D0134B7C
:10149000984203D1124B1A404B881A43114B984281
:1014A00003D0114B1A400B891A4302804B68C36268
:1014B0000B880385084B984208D00C4B984205D006
:1014C0000B4B984202D00B4B984201D18B7A03868A
:1014D0000123838270470000002C0140000400407B
:1014E0008FFF000000100040FFFC000000400140A2
:1014F000004401400048014010B50446012C04D1CD
:1015000001030548FEF7DEFF04E00121090302485C
:10151000FEF7D6FF10BD00000004004810B50446D9
:10152000012C04D1C1030548FEF7CCFF04E00121E2
:10153000C9030248FEF7C4FF10BD000000040048C4
:1015400010B50446012C04D181030548FEF7BAFF0B
:1015500004E0012189030248FEF7B2FF10BD00003C
:101560000004004810B50120FFF7C6FF0120FFF777
:10157000E7FF0120FFF7D2FF5220FFF750FD302098
:10158000FFF74DFD0020FFF74AFD0220FFF747FD62
:101590000620FFF744FD10BD10B5024800F0E6F844
:1015A00010BD00004C03002010B5024800F0DEF82A
:1015B00010BD000004050020002904D002680123AA
:1015C0001A43026003E0026852085200026070474A
:1015D00070B502460B4600240021002500201E04A1
:1015E000350ED9B201268E403146012D02D1166842
:1015F000314006E0022D02D15668314001E0966884
:1016000031401C0C0126A6403446D66934400029DE
:1016100003D0002C01D0012000E0002070BDF8B5FF
:1016200003460024002600960025002018460E04DC
:10163000340ECEB200960127009EB7403D46022CE4
:1016400001D1001D02E0032C00D10830002A03D094
:1016500006682E43066002E00668AE430660F8BDE9
:10166000F0B58BB004460D46002700200A900026F6
:101670002068400840002060666803210903304666
:1016800088430646A8680643666026682D480640DB
:10169000E968686808432969084306432660A66824
:1016A0000321090230468843064668690643A6605E
:1016B0006846FFF7DDFA2448844202D106980A9072
:1016C0000DE02248844202D107980A9007E02048A2
:1016D000844202D108980A9001E002980A9020689A
:1016E0000121C903084000280CD029680A9A50003B
:1016F000FEF700FD074629680A9A5000FEF7FAFC3B
:101700000E4609E029680A98FEF7F4FC07462968A6
:101710000A98FEF7EFFC0E4628684008B04200D851
:101720007F1C20680121C9030840002806D0380723
:10173000460F38460749084030430746A7810BB09B
:10174000F0BD0000F3E9FFFF003801400044004015
:1017500000480040F0FF00000146888CC005C00D25
:101760007047CA05D20D02857047000070B5044667
:1017700038492068FFF72CFF00281DD02068FFF7AC
:10178000EBFFC5B2E18AA0684554E08A401C80B2F4
:10179000E082E189884201DB0020E082608BE18900
:1017A000884202DA608B401C6083606A002802D0A5
:1017B0002846616A884700BF27492068FFF708FF6D
:1017C000002820D0A08A00280AD1002222492068BF
:1017D000FFF725FF012221492068FFF720FF38E0AD
:1017E000638A6268D15C2068FFF7BBFF608A401C97
:1017F00080B26082A189884201DB00206082A08AD9
:10180000401EA08225E015492068FFF7E1FE002870
:101810001FD0A08A00280AD1002210492068FFF7B3
:10182000FEFE206A002814D0206A804711E0638AF7
:101830006268D15C2068FFF794FF608A401C80B228
:101840006082A189884201DB00206082A08A401E5C
:10185000A08270BD05010500070107000601060012
:10186000F8B504460E461746002529E00EE0012093
:1018700000F0AEF8A18A0091002000F0A9F8A1893B
:1018800068460088814200DD01E000BFEFE700BF4D
:10189000705D228A61688854012000F099F8208ADE
:1018A000401C80B22082A189884201DB0020208276
:1018B000A08A401CA082002000F08AF8681C85B233
:1018C000BD42D3DB012202492068FFF7A8FEF8BD24
:1018D0000701070014481549086015484860154875
:1018E0008860C8208881C881002008824882C88218
:1018F000088348838882C861086248620E480F499D
:1019000008600F4848600F488860C8208881C881F7
:10191000002008824882C882088348838882C86180
:101920000862486270470000003801404C03002004
:10193000740300203C040020004400400405002003
:101940002C050020F405002070B504460D4600204B
:10195000FFF7D2FD0321A020FFF744FBA106080EEC
:101960000621FFF73FFB08212846FFF73BFB01203C
:10197000FFF7C2FD00BF00BF00BF00BF70BD000089
:101980000FB410B503A9044B044A029800F024F8E0
:1019900010BC08BC04B0184783230008580000207E
:1019A00010B50446204600F081FA10BD02E008C8D8
:1019B000121F08C1002AFAD170477047002001E0C9
:1019C00001C1121F002AFBD1704780F310887047B5
:1019D00080F3108870470000FFB591B00F460546B0
:1019E000002606E025280AD0149A139990476D1C0A
:1019F000761C28780028F5D1304615B0F0BD0024BB
:101A000000940121F34A029400E004436D1C2B78FA
:101A10000846203B98401042F7D128782A280ED05B
:101A20000222287801463039092915D800990A235D
:101A300059433039401814436D1C0090F1E701CF31
:101A40000090002805DA012040030443009840423A
:101A50000090022004436D1C28782E2815D1042004
:101A6000044368786D1C2A280AD101CF6D1C0290AE
:101A70000BE002990A225143303940186D1C029044
:101A80002878014630390929F3D928786C2810D0F4
:101A900006DC4C281AD068280ED06A2817D104E03A
:101AA000742813D07A2812D110E001204005044395
:101AB0000CE00121090501E0032109050C436978C7
:101AC000814203D10120000524186D1C6D1C28786B
:101AD0006E281ED00CDC632831D004DC00288BD0AB
:101AE000582811D1B2E064287BD069280CD178E065
:101AF00073282DD004DC6F2870D0702804D1A7E0A3
:101B000075286CD078286BD0149A13999047761C5E
:101B100062E06002400F022807D003280AD00428A0
:101B200038680AD006603F1D56E03868F117066035
:101B30004160F8E738680680F5E70670F3E7387823
:101B4000694608740020487404A80390012003E04B
:101B5000386803900020C0433F1D61070FD5002166
:101B600001E00199491C029A0191914213DA8142E4
:101B7000F7DB019A0399895C0029F2D10BE000217F
:101B800001E00199491C01918142FADB019A039914
:101B9000895C0029F5D101990098139A401A0090A8
:101BA0002146149B00F03CF901998019461807E082
:101BB000039803990078491C0391149A139990474C
:101BC0000198401E0190401CF2D12146149B139AAB
:101BD000009800F015F986196D1C0AE741E033E022
:101BE00034E00A200021049005916002410F02298F
:101BF00005D001CFC2179446032905D007E0FF1D89
:101C0000FF08FF0003CF06E000B2C2179446042984
:101C100002D140B2C1178C4600226146944506DAD3
:101C20000A460021404291418C462D2102E02105C7
:101C300004D52B216A461176012103E0E10701D08A
:101C40002021F7E7019155E00A200BE0102009E080
:101C500010200490002104200443082005910290E4
:101C600003E008200021059104906002410F022941
:101C700005D001CF00229446032906D006E0FF1DBF
:101C8000FF08FF0003CF8C4603E080B2042900D197
:101C9000C0B20021019121072CD529780391702928
:101CA00006D0049A1021059B4A401A4305D00EE045
:101CB00040216A461176012108E06146014306D0C1
:101CC00030216A4611760399517602210191049AD6
:101CD0000821059B4A401A430CD16146014301D1BA
:101CE000610707D530216A461176012101910299D9
:101CF000491E02912978582904D037A103910FA9D0
:101D00000F910DE039A1F9E76146059B049AFEF7B2
:101D100019FA039B8C469B5C0F9A521E0F9213700C
:101D200061460143F0D10F9807A9081A20300390AB
:101D3000600704D5012000048443029801E00120DB
:101D400002900399884201DD401A00E0002041180A
:101D50000290019809180098401A0090E00306D4F8
:101D60002146149B139A009800F05AF88619002017
:101D7000049008E006A9085C149A13999047049807
:101D8000401C761C049001998842F3DBE0030CD5DB
:101D90002146149B139A009800F042F8861904E03B
:101DA000149A302013999047761C0299481E02908D
:101DB0000029F5DC08E00F980F990078491C0F9175
:101DC000149A13999047761C0399481E0390002992
:101DD000F1DCFAE609280100303132333435363788
:101DE0003839616263646566000000003031323367
:101DF0003435363738394142434445460000000007
:101E0000F8B5044600251E461746880404D405E0AC
:101E100039462020B0476D1C641EF9D52846F8BD10
:101E2000FFB50446002581B01E46C80301D5302702
:101E300000E02027880404D505E038460399B04720
:101E40006D1C641EF9D5284605B0F0BD70B504467A
:101E50000120FFF7BAFD074806680020FFF7B5FD2F
:101E6000A64201DB351B02E00348001B851928460A
:101E700070BD000040000020FFFFFF7F01460A29DF
:101E800001DB002070470C204843074A8018407847
:101E9000012807D100220C204843034BC018427090
:101EA0000120EFE70020EDE79001002010B5044687
:101EB000002C00D110BD012C00D102240120FFF71D
:101EC00084FD09480460002008490870FFF77DFD83
:101ED00006E000F0BFF805480078012800D100E0D6
:101EE000F7E700BF00BFE5E7380000203C00002016
:101EF00070B50546280131494418206880470028FC
:101F00003FD02079052802DA0520207154E020799D
:101F10000A2803DA2079401C20714DE0A07A0028BD
:101F200007D10120A07269006918491CC8B200F0ED
:101F300083F9208900283FDDE088218988420DDA75
:101F4000E088401C80B2E0802189884234D1690059
:101F50006918C91CC8B200F06FF92DE0E07A0028BA
:101F60002ADD207B401CC0B22073E17A884223DB4B
:101F70000020207369006918491CC8B200F05CF9A0
:101F80001AE02079052802DD0520207111E0207972
:101F9000002803D02079401E20710AE0A07A012891
:101FA00007D10020A07269006918891CC8B200F02E
:101FB00043F90020E080207370BD00007001002014
:101FC0000B48807A0A4AD27A904201D100207047A9
:101FD0000748807A064A115C1046807A401CC0B2DD
:101FE00090720A2801DB002090720846EFE700009B
:101FF0008001002001460E4803784078834201D1D9
:10200000002070470A480078C0000A4BC2180848F0
:102010000078401CC3B206480370282B01DB002364
:10202000037010880880506848600120E9E70000CC
:10203000480300200802002010B50120FFF7C5FC6E
:10204000034804680020FFF7C0FC204610BD0000D4
:1020500040000020704710B500F034F800F072F82E
:1020600000F0D4F810BD00007FB501218804FEF710
:10207000B3FD1048006846080F493046FEF73AF8AD
:1020800085B20E4C02946846858000218181C18012
:1020900001A90B48FFF7F2F901210948FFF7C2F93E
:1020A0001621684601700021417001218170FEF700
:1020B000FDFC7FBD0000002040420F00FFFF00003C
:1020C0000048014010B500F015F800F001F810BD0F
:1020D0001CB501218805FEF75FFD4020009000211E
:1020E00068460171C17169460148FEF77FF91CBD60
:1020F000001400480021104A9172D172117300201F
:1021000014E0C82102010D4BD218118102210201F5
:10211000D218117100210201D21891720201D21855
:10212000D1720201D2181173411CC8B20128E8DB38
:102130000349024A116070478001002070010020AD
:10214000A506000870B5002412E000210C206043B1
:102150001D4A801841600C206043801881600C206B
:102160006043801841700C2060431154601CC4B25D
:102170000A2CEADB7D21C90014480068FDF7BAFF8C
:102180000546681E1249884201D901200CE0681EEC
:10219000104948610321081FFEF7C0FC00200D49CB
:1021A0008861072008610020002807D084230A4A9C
:1021B0000AA110A0FFF7E4FB00BFFEE70420FEF732
:1021C000D5FFFFF751FF70BD9001002000000020F7
:1021D000FFFFFF0000E000E0D02400082E2E5C622C
:1021E00073705C7372635C6273705F74696D657247
:1021F0002E6300004C6F673A205B25733A25735DB0
:10220000206C696E65203D2025640A0010B5FFF73B
:1022100061FBFEF76BF9FEF7E3FEFEF727F810BD52
:1022200010B5002404E02046FFF762FE601CC4B233
:10223000012CF8DB10BD00000649C97A054A50544C
:102240001146C97A491CC9B2D1720A2901DB0021A1
:10225000D1727047800100200A4A5278D2000A4B9E
:102260009852084A5278D200D2185160054A5278E2
:10227000521CD3B2034A5370282B01DB0023537046
:1022800070470000480300200802002010B5FFF747
:10229000C7FF10BD70477047416800290BD04168E7
:1022A000491E4160002906D10121417001780129B0
:1022B00001D181684160704770B504460D460A2C13
:1022C00006DB104A10A116A0FFF75AFB00BFFEE77D
:1022D0000120FFF77AFB0C20604319494018456044
:1022E0000C2060434018856000210C206043144A94
:1022F0008018417001210C20604311540020FFF729
:1023000064FB70BDED2400082E2E5C6273705C735C
:1023100072635C6273705F74696D65722E63000036
:102320004572726F723A2066696C652025732C20A5
:1023300066756E6374696F6E20257328290D0A0017
:1023400090010020F8B505460E4617462846FDF7D1
:1023500079FF0446002C00D1F8BDE069002801D0C7
:10236000E06980473A4631462046FFF779FA00BFD8
:10237000F2E713B50446012201A92046FFF7E2FF68
:102380001CBD70B504460D46E1B20020FFF7F1FF19
:10239000204670BD70B504460D4629462046FFF71D
:1023A000D3FA70BD86B0FEF797F8FFF754FEFEF73C
:1023B00089F9FDF76FFFC8210020FFF77DFF404935
:1023C0000120FFF779FF79E0FFF744FE0020FFF7D7
:1023D00055FD00280ED03B48808A042188433949A6
:1023E000097D4907C90FC9438900042211400843E8
:1023F000344988820120FFF741FD04A8FFF7FAFD68
:10240000002808D06846008A082802D1FDF742FF5C
:1024100000E000BF00BFFFF7D3FD0546002D4DD003
:1024200000210820FFF718FF012D04D0022D07D04E
:10243000032D41D109E00B212348FEF7D3FA3CE0FC
:102440000F212248FEF768F937E0002410222146C8
:10245000641C01A8425404222146641C42541022E8
:102460002146641C425466222146641C42541022B8
:102470002146641C42549A222146641C4254102274
:102480002146641C425436222046611CCCB201A96C
:102490000A5400222046611CCCB201A90A54202211
:1024A0002046611CCCB201A90A5401AA05212120B1
:1024B0000002FEF7C7FA00E000BF00BF84E700009B
:1024C00010270000000400480211000026D0000080
:1024D0006273705F496E697454696D6572006273EE
:1024E000705F537461727454696D657200627370C9
:1024F0005F53746172744175746F54696D657200D5
:102500006273705F53746F7054696D65720000C1BF
:10251000814001C0804101C0804100C1814001C0B3
:10252000804100C1814000C1814001C0804101C0A3
:10253000804100C1814000C1814001C0804100C193
:10254000814001C0804101C0804100C1814001C083
:10255000804100C1814000C1814001C0804100C173
:10256000814001C0804101C0804100C1814000C163
:10257000814001C0804101C0804100C1814001C053
:10258000804100C1814000C1814001C0804101C043
:10259000804100C1814000C1814001C0804100C133
:1025A000814001C0804101C0804100C1814000C123
:1025B000814001C0804101C0804100C1814001C013
:1025C000804100C1814000C1814001C0804100C103
:1025D000814001C0804101C0804100C1814001C0F3
:1025E000804100C1814000C1814001C0804101C0E3
:1025F000804100C1814000C1814001C0804100C1D3
:10260000814001C0804101C0804100C1814000C0C3
:10261000C101C30302C2C60607C705C5C404CC0C6A
:102620000DCD0FCFCE0E0ACACB0BC90908C8D818DA
:1026300019D91BDBDA1A1EDEDF1FDD1D1CDC14D4EA
:10264000D515D71716D6D21213D311D1D010F0301A
:1026500031F133F3F23236F6F737F53534F43CFC2A
:10266000FD3DFF3F3EFEFA3A3BFB39F9F83828E8DA
:10267000E929EB2B2AEAEE2E2FEF2DEDEC2CE424AA
:1026800025E527E7E62622E2E323E12120E0A0601A
:1026900061A163A3A26266A6A767A56564A46CACEA
:1026A000AD6DAF6F6EAEAA6A6BAB69A9A86878B85A
:1026B000B979BB7B7ABABE7E7FBF7DBDBC7CB4746A
:1026C00075B577B7B67672B2B373B17170B050901A
:1026D00091519353529296565797559594549C5CAA
:1026E0005D9D5F9F9E5E5A9A9B5B9959589888485A
:1026F00049894B8B8A4A4E8E8F4F8D4D4C8C44842A
:102700008545874746868242438341818040000059
:1027100030270008000000205C000000AC19000811
:102720008C2700085C000020640A0000BC19000827
:10273000006CDC0200000000000000000102030445
:10274000060708090000000000000000000000006B
:102750000000000000000A00000000000102030465
:102760000102030406070809000000000000000041
:102770000000000000000000000000000000000059
:0C2780000000000000000000000000004D
:04000005080000C12E
:00000001FF
