:020000040800F2
:1000000030070020D90000088D0F000849060008BD
:1000100000000000000000000000000000000000E0
:10002000000000000000000000000000D9150008DA
:100030000000000000000000DD100008091C00089E
:10004000EB000008EB000008B9150008EB00000801
:10005000EB00000865040008EB00000899040008A4
:10006000EB000008EB000008EB000008EB000008C4
:10007000EB000008EB000008EB000008EB000008B4
:10008000EB000008EB00000800000000EB00000897
:10009000EB000008EB000008F91D0008EB00000869
:1000A000EB000008EB000008EB00000885200008CA
:1000B000E520000800000000EB0000080000000040
:1000C0000448854600F040F800480047092B000826
:1000D000C046C04630070020044880470448004717
:1000E000FEE7FEE7FEE7FEE7FEE7FEE7791D000814
:1000F000C100000830B50B46014600202022012433
:1001000009E00D46D5409D4205D31D469540491B4B
:100110002546954040191546521E002DF1DC30BD94
:1001200070B500242546002801DA01244042002948
:1001300001DA01254942FFF7DDFFAC4200D0404221
:10014000002C00D0494270BD064C0125064E05E04A
:10015000E36807CC2B430C3C98471034B442F7D3E8
:10016000FFF7B2FF702C0008902C000810B5044671
:100170000548844207D10121401500F0E1FF00212C
:10018000601500F0DDFF10BD0024014010B53148BE
:100190000078012800D110BD2F480078002806D033
:1001A00001280FD0022818D0032849D140E02B485D
:1001B0000088322805DB32202849088001202649A2
:1001C000087043E001F0BAFB00202549087025497A
:1001D000087002202049087038E023480078800722
:1001E000C00F002816D020480078022188431E49FD
:1001F000087000201D4908701849088019480078C7
:10020000002803D103201449087010E0002012498F
:1002100008700CE0114800887D21C900884206DD85
:100220000020124908700D4908800B4908700DE044
:1002300001F03AFB0020094908800749087005E0F1
:100240000020064908800449087000BF00BF00BFB5
:10025000A1E7000071000020180000201A00002013
:100260001D0000201C000020200000201E00002097
:1002700000B56448007840084000624908700846AC
:100280000078102188435F490870084600782021D3
:1002900088435C49087008460078402188435949E2
:1002A00008700846007880218843564908705648EF
:1002B000008856490978884254D0544800785249F9
:1002C000088052480078030002F018F90504202D38
:1002D0003A424A004E48808A082188434C49097DA9
:1002E0000907C90FC943C9000822114008434849FA
:1002F000888248480088401C464908804148007868
:1003000040084000401C3F4908702AE042480088ED
:10031000401C414908803B48007810218843103038
:10032000384908701DE03D480088401C3B49088062
:10033000344800782021884320303249087010E08A
:10034000304800784021884340302E49087008E04A
:100350002C4800788021884380302A49087000E0CA
:1003600000BF00BF27480078022188432549087054
:1003700028480088022809DB0020264908802148F7
:10038000007802218843801C1E4908701D480078AF
:10039000082188431B4908700846007804218843D7
:1003A000184908701D48008814280AD100201B49EC
:1003B00008801448007804218843001D1149087002
:1003C0000DE015480088142809D100201249088042
:1003D0000C4800780821884308300A490870094809
:1003E00000780007C00F00280AD00D480078401C94
:1003F0000B49087008460078052801DB00200870CA
:1004000000BD000068000020740000206F00002084
:100410000004004876000020780000207A000020C8
:100420007200002070B502460C48002313E01578D6
:10043000521C684000240AE0C507ED0F002D03D0D0
:100440004010074D684000E04010651CACB2082C1D
:10045000F2DB5D1CABB28B42E9DB70BDFFFF00003D
:1004600001A0000010B5012000F028F8002807D0F6
:1004700008480078C04307490870012000F018F8C8
:10048000022000F01BF8002802D0022000F010F833
:1004900010BD00007100002010B5402000F00EF8E3
:1004A000002804D001F068FC402000F001F810BDE5
:1004B00001494861704700000004014001460020E6
:1004C000044A52690A40002A01D0012000E00020BD
:1004D0007047000000040140002120498279002A71
:1004E00035D00A46126803689A430B461A600A46DA
:1004F000526803689A430B465A60027951180A6899
:1005000003681A430A60154A926803689A43134BBA
:100510009A601A46D26803689A43104BDA604279AF
:10052000102A0CD11A46926803681A430B4B9A6042
:100530001A46D26803681A43084BDA600DE007498F
:10054000427951180A6803681A430A6005E0027983
:1005500051180A6803689A430A6070470004014012
:10056000F0B50A4600210023002400BF3DE001252C
:100570008D402B4615681D402C469C4234D1157980
:10058000012D02D01579022D16D185684F00032662
:10059000BE40B543856055794E00B5408668354309
:1005A0008560858801268E40B5438580858896794B
:1005B0008E40B6B23543858005684F000326BE40A5
:1005C000B543056015794E00B540066835430560B2
:1005D000C5684F000326BE40B543C560D5794E00BF
:1005E000B540C6683543C560491C1029BFD3F0BD6E
:1005F000F0B5002300244D07EE0E1546B5402B46FE
:10060000CD10AE0005462035AD594E07F70E0F262A
:10061000BE40B543CE10B60007462037BD51CD10C1
:10062000AE003D46AD591D432C46CD10AD003E46B3
:100630007451F0BD0185704781617047002A01D077
:10064000816100E00185704700BFFEE71CB5012114
:10065000480400F045FD0121880400F041FD01211E
:10066000C80400F03DFD0121880500F039FD134864
:10067000FFF77CFD00200921C906C860401E086004
:1006800000200F49C860401E086000200D49C86066
:10069000401E08600120C0030090012168460171DE
:1006A00000218171417169460548FFF759FF0098A3
:1006B00081B20348FFF7C0FF1CBD000000240140C9
:1006C000000400480008004810B5FFF7BFFF10BD48
:1006D00010B501F051FB00F00BF800F055F800F0F8
:1006E0007BF800F0CDF800F06FF902F0D0F810BD03
:1006F0001CB50121480400F0F3FC0121880400F03E
:10070000EFFC0121C80400F0EBFC01221C491D484C
:10071000FFF794FF012204211A48FFF78FFF3C20C6
:100720000090012168460171002141718171694683
:100730001448FFF715FF0120400300900021684690
:100740000171417169460F48FFF70AFF442000908C
:100750000121684601710021417181716946094892
:10076000FFF7FEFE0F200003009001216846017193
:1007700000214171817169460248FFF7F1FE1CBDFD
:1007800040F00000000400481FB50121880400F07B
:10079000C7FCFF20F530029030216846818000219F
:1007A0008181C18001A90B4801F08EFB0122114615
:1007B000084801F07EFB1621684601700021417057
:1007C0000121817000F0E4FB0121024801F050FB9F
:1007D0001FBD00000048014000B589B00121880319
:1007E00000F09EFC1B216846017000214170012130
:1007F000817000F0CDFB01220921C806FFF7F8FE49
:1008000001220A210920C006FFF7F2FE0320400260
:100810000790022108A80170002181700121C17098
:100820000021417007A90920C006FFF799FE4B205F
:1008300000020190002002900390049006900C208A
:10084000059001A90C4801F0DBFC0B4880680121F0
:1008500008430949886008468068C9140843064966
:1008600088600121044801F06DFC0122034902481F
:1008700001F0A5FC09B000BD0038014005010500EC
:1008800000B589B00121480400F03AFC1C216846FB
:100890000170002141700121817000F079FB01227B
:1008A00002210920C006FFF7A3FE0122032109202F
:1008B000C006FFF79DFE0C200790022108A80170DA
:1008C000002181700121C1700021417007A9092018
:1008D000C006FFF745FE4B20000201900020029069
:1008E0000390049006900C20059001A90C4801F09B
:1008F00087FC0B4880680121084309498860084645
:100900008068C9140843064988600121044801F041
:1009100019FC01220349024801F051FC09B000BD55
:10092000004400400501050000200549C8804880BA
:10093000FF20F5300880282088800020088170473B
:10094000F200002000B585B00121080700F0D8FBB7
:100950000121084600F0E4FB0121880500F0C0FBFE
:1009600040200090002168460171C17169460F481E
:10097000FFF7F6FD0621052000F030FE4020039031
:100980000021684601740C2141740121817403A87F
:10099000FFF7A2FD07216846017200214172012183
:1009A000817202A800F0F4FA05B000BD00140048FE
:1009B0000448008A40210840002801D101207047E6
:1009C0000020FCE70014004810B501F0F1FA10BD5A
:1009D00010B53F4908890A21FFF7A2FB0A2835DB39
:1009E0003C480078012819D13B484178062002F0A4
:1009F00083F839480078401CC1B2082002F07CF826
:100A0000334908890A21FFF78BFB3348405C401CBF
:100A1000C4B221460A2002F06FF858E02E4841780F
:100A2000062002F069F82C480178082002F064F8EA
:100A3000274908890A21FFF773FB2748405C401CBF
:100A4000C4B221460A2002F057F840E0214800785D
:100A500001281FD12048817A062002F04DF81C4958
:100A600008890A21FFF75CFB1B49085C401CC4B2E3
:100A70002146082002F040F8154908890A21FFF7AD
:100A80004FFB1548405C401CC4B221460A2002F0CE
:100A900033F81CE01048817A062002F02DF80C494A
:100AA00008890A21FFF73CFB0B490C5C2146082012
:100AB00002F022F8064908890A21FFF731FB0648AF
:100AC000405C401CC4B221460A2002F015F810BD5B
:100AD000F2000020580000203400002070B564218E
:100AE00027480088FFF71CFB00280DD12548007817
:100AF000012804D10821002001F0FEFF21E000219F
:100B0000084601F0F9FF1CE01E48007801280DD1CD
:100B100064211B480088FFF703FB1B49085C083071
:100B2000C4B22146002001F0E7FF0AE06421144826
:100B30000088FFF7F5FA14490C5C2146002001F00B
:100B4000DBFF0A210E480088FFF7EAFA05460A2172
:100B5000FFF7E6FA0C48405C0830C4B22146022098
:100B600001F0CAFF0A2106480088FFF7D9FA0648B3
:100B7000405C0830C4B22146042001F0BDFF70BDC6
:100B800026000020570000202800002010B5022475
:100B9000FF21002001F0B0FF204601F0BDFCFF2145
:100BA000022001F0A9FF204601F0B6FCFF2104203D
:100BB00001F0A2FF204601F0AFFCFF21062001F06A
:100BC0009BFF204601F0A8FCFF21082001F094FFC4
:100BD000204601F0A1FCFF210A2001F08DFF10BD8D
:100BE00010B50446230001F089FC0A061C32485E59
:100BF000748AA0B6CCE2F421062001F07DFF6D4896
:100C00000078012804D17F21082001F075FF03E05E
:100C10007E21082001F070FFFA210A2001F06CFF0C
:100C2000C6E0F421062001F067FF62480078012841
:100C300004D17F21082001F05FFF03E07E2108201E
:100C400001F05AFF0A21084601F056FFB0E0F421F6
:100C5000062001F051FF57480078012804D17F2178
:100C6000082001F049FF03E07E21082001F044FF45
:100C7000D6210A2001F040FF9AE0F421062001F07D
:100C80003BFF4C480078012804D17F21082001F067
:100C900033FF03E07E21082001F02EFF9E210A2071
:100CA00001F02AFF84E0F421062001F025FF4148ED
:100CB0000078012804D17F21082001F01DFF03E006
:100CC0007E21082001F018FF2E210A2001F014FFD8
:100CD0006EE0F421062001F00FFF3648007801286D
:100CE00004D17F21082001F007FF03E07E210820C6
:100CF00001F002FFBC210A2001F0FEFE58E0F421C1
:100D0000062001F0F9FE2B480078012804D17F214C
:100D1000082001F0F1FE03E07E21082001F0ECFE46
:100D2000FC210A2001F0E8FE42E0F421062001F057
:100D3000E3FE20480078012804D17F21082001F03B
:100D4000DBFE03E07E21082001F0D6FE1A210A20F6
:100D500001F0D2FE2CE0F421062001F0CDFE154872
:100D60000078012804D17F21082001F0C5FE03E0AE
:100D70007E21082001F0C0FEFE210A2001F0BCFE09
:100D800016E0F421062001F0B7FE0A480078012899
:100D900004D17F21082001F0AFFE03E07E2108206E
:100DA00001F0AAFEBE210A2001F0A6FE00E000BF6D
:100DB00000BF10BD5800002010B50124012001F033
:100DC000ABFB6848407C00280CD16648007D0028B9
:100DD00008D16448407F002804D16248203040791F
:100DE000002808D00020FFF7FBFE204601F094FB0E
:100DF00001205D4908705B482030807AC007C00F31
:100E0000002808DD0120FFF7EBFE204601F084FBFF
:100E100001205649087053482030807A8007C00F5F
:100E2000002808DD0220FFF7DBFE204601F074FBFE
:100E300001204F4908704B482030807A4007C00F8E
:100E4000002805DD0120FFF7CBFE0120474908708F
:100E500044482030807A0007C00F002805DD0220BA
:100E6000FFF7BEFE0120424908703E482030807ADC
:100E7000C006C00F002808DD0520FFF7B1FE2046A0
:100E800001F04AFB01203B49087036482030807A47
:100E90008006C00F002808DD0620FFF7A1FE2046CF
:100EA00001F03AFB0120344908702E482030807A46
:100EB0004006C00F002808DD0320FFF791FE204602
:100EC00001F02AFB01202D49087026482030807A45
:100ED000C011002805DD0320FFF782FE012027490D
:100EE000087020482030407AC007C00F002808DD75
:100EF0000420FFF775FE204601F00EFB012020497B
:100F0000087018482030407A8007C00F002805DD9F
:100F10000420FFF765FE01201349087011482030B6
:100F2000407A4007C00F002808DD0720FFF758FE71
:100F3000204601F0F1FA01201249087009482030DA
:100F4000407A8006C00F002808DD0820FFF748FE21
:100F5000204601F0E1FA01200B4908700020024907
:100F6000087010BDB00000204D0000204E00002091
:100F70004F000020520000205300002050000020AD
:100F80005100002054000020550000207047000050
:100F900000218278002A27D0184A03231B02D21886
:100FA00003789B109B00D15802789207D30EFF2242
:100FB0009A400B469343194642789207120E0378E3
:100FC0009B07DB0E9A4011430C4A03231B02D218E5
:100FD00003789B109B00D1500278D306DB0E0122D0
:100FE0009A40064B1A6007E00278D306DB0E012216
:100FF0009A40024B80331A607047000000E100E025
:1010000010B5002819DA1A4A03071B0F083B9B0882
:101010009B00D2588307DC0EFF23A3409A438B0723
:101020001B0E8407E40EA3401A43114B0407240F40
:10103000083CA408A4001A5118E00E4A03231B021E
:10104000D21883089B00D2588307DC0EFF23A340ED
:101050009A438B071B0E8407E40EA3401A43054BEB
:10106000032424021B198408A4001A5110BD000097
:101070001CED00E000E100E010B502460020154B39
:10108000186880088000034613431846114B186007
:10109000114B1B69042423430F4C2361012907D101
:1010A00030BF23461B690424A3430B4C23610FE08C
:1010B000022907D120BF084B1B690424A343064C17
:1010C000236105E0044B1B6902242343024C236186
:1010D00010BD00000070004000ED00E0704700000F
:1010E000002905D0054A52690243044B5A6104E0C5
:1010F000024A52698243014B5A6170470010024014
:10110000002905D0054AD2690243044BDA6104E0A4
:10111000024AD2698243014BDA61704700100240F3
:10112000002905D0054A92690243044B9A6104E004
:10113000024A92698243014B9A6170470010024053
:10114000002905D0054AD2680243044BDA6004E066
:10115000024AD2688243014BDA60704700100240B5
:10116000194800680121084317490860084640688B
:101170001649084014494860084600681449084068
:1011800011490860084600680121890488430E4916
:101190000860084640683F21090488430A494860BE
:1011A0000846C06A00090001C8620846006B094988
:1011B0000840054908630846406B40084000486302
:1011C0000020886070470000001002400CB8FF0843
:1011D000FFFFF6FEACFEF0FFFEB50446002500263C
:1011E00000200290019000900027864840680C2162
:1011F00008400546002D06D0042D07D0082D08D044
:101200000C2D2CD128E0804820602BE07E48206007
:1012100028E07C4840680F21890408400646794848
:1012200040680321C90308400290B00C861C029854
:10123000002803D17548374647430BE07148C06A20
:101240000007000F401C01906F480199FEF752FF04
:1012500070430746276005E06D48206002E06A4859
:10126000206000BF00BF67484068F0210840054685
:101270002D096848405D009020680099C840606072
:101280006048406807210902084005462D0A614868
:10129000405D009061680098C140A1605948006BB2
:1012A000FF2101310840884202D05B48E0600DE038
:1012B00054484068012189030840884203D0A0684F
:1012C0004008E06002E0A0688008E0604D48006BE4
:1012D00040210840402802D05048206102E001200F
:1012E000C00320614748006B10210840102802D03D
:1012F0004548606101E0206860614248006B8007FA
:10130000800F002802D1A068A06119E03D48006B61
:101310008007800F012802D12068A06110E03948C1
:10132000006B8007800F022802D18003A06107E0D4
:101330003448006B8007800F032801D13248A06138
:101340003048006B032109040840002802D1A0683E
:10135000E06120E02B48006B0321090408400121D3
:101360000904884202D12068E06114E02548006B3E
:1013700003210904084001214904884202D1801058
:10138000E06108E01F48006B03210904084088421F
:1013900001D11D48E0611B48006B0321890408400E
:1013A000002802D1A068206220E01648006B0321CB
:1013B0008904084001218904884202D12068206202
:1013C00014E01048006B0321890408400121C9047E
:1013D000884202D10011206208E00A48006B032114
:1013E00089040840884201D1074820620548006B03
:1013F00080210840802802D00548606200E06762D2
:10140000FEBD00000010024000127A0000093D00FD
:10141000006CDC027C000020809FD5001280000060
:1014200010B502460021002300205111002902D1ED
:101430000C4C23680BE0012902D10A4C236A06E018
:10144000022902D1074C636A01E0064C636BD106A6
:10145000C90E01248C401C40002C01D0012000E06A
:10146000002010BD00100240024840680C210840D6
:10147000704700000010024001460020054A5068F5
:10148000F02302469A43104602460A431046014A98
:101490005060704700100240002806D006490968D5
:1014A00001221143044A116005E003490968490813
:1014B0004900014A116070470010024001460020B7
:1014C000064A506807231B0202469A43104602460A
:1014D0000A431046014A5060704700000010024065
:1014E000002807D007490968012212061143054A5E
:1014F000116006E003490968012212069143014A7E
:101500001160704700100240074A52687B23DB03DA
:101510009A43054B5A601A46526803460B431A43D6
:10152000014B5A6070470000001002400146002045
:10153000044A50688008800002460A431046014A67
:10154000506070470010024010B500210109802250
:101550000A4392B2D243044BDB68802423401A43EF
:10156000014BDA6010BD00000028004070B5014654
:101570000020002200230F4C246804252C40224622
:101580000C4C403CA4680C408E0C0D46F540ED0B15
:1015900015402C432346074C403CE4680D092C4081
:1015A0002246002B04D094B2002C01D0012000E090
:1015B000002070BD4028004010B501200003FFF757
:1015C000D5FF002803D001200003FFF7BDFF012055
:1015D0004004FEF76DFF10BD7047000030B50022DB
:1015E0008B071C0F0F23A3401A460B4B8C10A40033
:1015F0001B599343084C8D10AD00635123468C104A
:10160000A4001B598C07250F0446AC402343024C11
:101610008D10AD00635130BD080001400C4880883A
:10162000C1B20C4802780078401C0A4B18700A4876
:10163000815401200949087018460078312805DBDB
:101640000020194608700120054908707047000005
:10165000204400401D000020B00000201E0000209B
:101660001C0000204D494968202291434B4A51609B
:101670004B498988CAB2037801460A31CA540178B5
:10168000002909D1817A012906D0817A002903D065
:1016900000210170817277E00178012926D102785A
:1016A00001460A31895C032904D0062909D0102992
:1016B00015D10DE00322D2210A540178491C017092
:1016C00013E00622D2210A540178491C01700CE073
:1016D0001022D2210A540178491C017005E0002132
:1016E000017081720022C27200BF4DE001780229B0
:1016F00047DDD221095C032904D0062903D0102933
:1017000030D115E000BF0178072910D101214170C7
:1017100023492039096804229143214A203A116063
:1017200011460968202291431D4A203A11601DE0AC
:101730000178072915DB0278017C08318A4210D133
:101740000121417016492039096804229143144A45
:10175000203A11601146096820229143104A203A2C
:10176000116003E000210170817200BF00BF0178A9
:10177000491C01700178C82906D1002101708172CD
:1017800002E00178491C01700549203909682022CE
:101790001143034A203A11607047000000380140AD
:1017A0002044004010B53848008803218903401ABE
:1017B00066D0032865D13548C47824020079001921
:1017C00084B23348C4803148407900022F49897976
:1017D00008432F4948802D48C07900022B49097AD7
:1017E00008432B4908802948407A00022749897A12
:1017F0000843274988802548C07A00022349097B8D
:1018000008432349088121482030C07A00021F493B
:101810002031097B0843001F1E4908801E480088AC
:101820001E4908801948407B00021849897B0843FB
:101830001949088008460088002804D11748008804
:101840000988884203D001201549087002E0002071
:10185000134908700D48C07B00020C49097C0843FD
:10186000002803D001200F49087002E000200D4934
:101870000870FFF733F9FFF7ABF8FFF79DFA01E0C7
:1018800000E000BF00BF10BD16000020B000002027
:10189000F20000202600002024000020220000206A
:1018A000570000205800002070B52148007800281B
:1018B00003D01F480078012838D11E48007802283C
:1018C00000DA70BD1B480078801E84B21848015DA4
:1018D0000246601C105C0002081885B2E1B2104696
:1018E000FEF7A0FDA84221D111484078124909789D
:1018F00088421BD11048007805280BD004DC012851
:1019000007D0032810D106E0062807D010280BD1F5
:1019100007E000BF09E0FFF745FF06E000F09CF894
:1019200003E000F09AF800E000BF00BF00BFC8E786
:10193000B00000201D00002014000020F8B5002792
:1019400000263D480088322875DB3C480078C007F7
:10195000C00F00286FD03220374908800020384956
:101960000870012503203749087037483749088037
:101970001524334801780078401C314A10703448EF
:10198000455430480178104602780078401C2C4BB2
:1019900018702F4881542D4800880112184602788B
:1019A0000078401C18702A4881542848017818464D
:1019B00002780078401C187025488154211218467E
:1019C00002780078401C187021488154184601782C
:1019D0000078401C1A4610701D4844541046017887
:1019E0001B48FEF71FFD0746154802780078401C8B
:1019F000134B18701648875439121846027800782D
:101A0000401C18701248815400BF0DE000BF1148FF
:101A1000C069802108400028F9D00D48805D0D493B
:101A200020310881701C86B2054800788642EDDBC3
:101A3000002001490880F8BD1A0000201F00002086
:101A4000430000201400002003C000001600002006
:101A5000E2000020004400407047704770B5044623
:101A60000D46002614E080202040002802D100F01E
:101A70007BFA02E0012000F077FA002000F086FAFD
:101A800000BF012000F082FA6006040E701CC6B28E
:101A9000AE42E8DB70BD10B50446002000F052FAFB
:101AA00000BF04218020FFF7D9FF08212046FFF75F
:101AB000D5FF00BF012000F045FA10BD1CB5002085
:101AC00001900090454800680121090408434349FA
:101AD000086000BF414800680121490408400090A7
:101AE0000198401C01900098002804D105210903A9
:101AF00001988842EED13948006801214904084024
:101B0000002802D00120009001E000200090009801
:101B100001283AD1112032490860304840682F49E5
:101B20004860084640684860084640687F21C9030D
:101B300088432A4948600846406809210904084347
:101B400026494860084600680121090608432349E0
:101B5000086000BF214800680121490608400028AC
:101B6000F8D01E484068800880001C49486008463C
:101B70004068022108431949486000BF174840687F
:101B80000C2108400828F9D126E0FFF7E9FA0120E6
:101B9000FFF782FC00BF0120FFF742FC0028FAD0CB
:101BA0000020FFF769FC0020FFF788FC0521C9042D
:101BB0000020FFF7A9FC0120FFF792FC00BF1920CD
:101BC000FFF72EFC0028FAD00220FFF7AFFC00BF81
:101BD000FFF74AFC0828FBD11CBD000000100240A2
:101BE00000200240042806D1064909690422114355
:101BF000044A116105E00349096904229143014A3D
:101C00001161704700E000E010B500F001F810BD70
:101C100010B522480068002809D020480068401EFE
:101C20001E490860002802D101201D4908700024C7
:101C300007E00C2161431B4A881800F0F5FE601C88
:101C4000C4B20A2CF5DB18480068401C164908602D
:101C5000084600681549884202D1002012490860F0
:101C600000F0E0FE12480078401CC0B21049087035
:101C70000A2803DB0020087000F0D0FE0D48008821
:101C8000401C80B20B490880FF21F531884204DBFB
:101C900000200849088000F0C6FE10BD8C0000201E
:101CA00090000020B802002094000020FFFFFF7F7A
:101CB000A8000020AA00002010B501210846FFF767
:101CC000DBF910BD10B5002100200022254B5B6818
:101CD0000C2423401946002904D0042906D00829E1
:101CE0002ED107E0204B214C23602DE01E4B1F4CD2
:101CF000236029E01B4B5B680F24A4042340184693
:101D0000184B5B680324E40323401A46830C981C99
:101D1000002A04D1164B4343144C23600FE0114BAF
:101D20005B68012464042340002B04D0104B434320
:101D30000E4C236003E00C4B43430C4C236003E048
:101D4000094B0A4C236000BF00BF064B5B68F024C0
:101D500023401B09074CE15C044B1B68CB40034C40
:101D6000236010BD0010024000127A000000002025
:101D700000093D000400002010B51C480068012146
:101D800008431A490860084640681949084017493D
:101D9000486008460068174908401449086008462A
:101DA000006801218904884310490860084640689A
:101DB0003F21090488430D4948600846C06A00096C
:101DC0000001C8620846006BFF215431884307496F
:101DD00008630846406B4008400048630020886064
:101DE000FFF76CFEFFF76EFF10BD00000010024011
:101DF0000CB8FF08FFFFF6FE10B50121164800F0F1
:101E000045F8002826D00121134800F02DF813488A
:101E10000078401CC0B21149087002281ADB00206B
:101E200008700F480078401C0D49087000F0E8F871
:101E30000B48007802280DDB00200949087009488A
:101E40000078401C0749087008460078052801DB27
:101E50000020087010BD0000004801406E00002006
:101E6000700000206F000020CA430282704700000B
:101E7000002904D0028801231A43028003E002886B
:101E8000014B1A4002807047FEFF000030B5024649
:101E9000002000230024158A0D402B4695890D4013
:101EA0002C46002B03D0002C01D0012000E00020A4
:101EB00030BD002A03D083890B43838102E08389EC
:101EC0008B4383817047000000220288154B9842A3
:101ED00006D001239B07984202D0134B984203D1AE
:101EE000124B1A404B881A43114B984203D0114BA6
:101EF0001A400B891A4302804B68C3620B88038522
:101F0000084B984208D00C4B984205D00B4B984296
:101F100002D00B4B984201D18B7A03860123838236
:101F200070470000002C0140000400408FFF0000BB
:101F300000100040FFFC0000004001400044014050
:101F40000048014010B50446012C04D101030548A6
:101F5000FEF772FB04E0012109030248FEF76AFB69
:101F600010BD00000004004810B50446012C04D147
:101F7000C1030548FEF760FB04E00121C9030248E4
:101F8000FEF758FB10BD00000004004810B50446E1
:101F9000012C04D181030548FEF74EFB04E001212A
:101FA00089030248FEF746FB10BD0000000400480C
:101FB00010B50120FFF7C6FF0120FFF7E7FF012062
:101FC000FFF7D2FF5220FFF766FD3020FFF763FDD9
:101FD0000020FFF760FD0220FFF75DFD0620FFF700
:101FE0005AFD10BD10B55220FFF755FD3020FFF708
:101FF00052FD0020FFF74FFD0420FFF74CFD10BD00
:102000001A480088401C1949088019480078C00700
:10201000C00F002811D117480088401C15490880BE
:1020200008460088C82808DBC820088010480078C7
:1020300040084000401C0E4908700F4800780128F5
:1020400013D10E480078401C0C49087008460078EF
:1020500096280ADD002008700749087008480078B3
:1020600002218843801C0649087070471A0000202E
:102070001F000020400000201E0000204200002021
:102080002000002010B51349134800F071F8002813
:1020900009D012480078002802D1FFF7BFFA02E009
:1020A0000F48FFF7DFFA0C48C069082108400028F4
:1020B00004D00948006A0843074908620648C06915
:1020C00002210840002804D00348006A084302495E
:1020D000086210BD050105000038014071000020B4
:1020E000FC00002010B51349134800F041F8002807
:1020F00009D012480078002802D1FFF78FFA02E0D9
:102100000F48FFF7AFFA0C48C069082108400028C3
:1021100004D00948006A0843074908620648C069B4
:1021200002210840002804D00348006A08430249FD
:10213000086210BD05010500004400407100002048
:10214000FC000020002904D0026801231A43026029
:1021500003E0026852085200026070470246002005
:10216000D3690B40002B01D0012000E00020704714
:1021700070B502460B4600240021002500201E04F5
:10218000350ED9B201268E403146012D02D1166896
:10219000314006E0022D02D15668314001E09668D8
:1021A00031401C0C0126A6403446D6693440002933
:1021B00003D0002C01D0012000E0002070BDF8B554
:1021C00003460024002600960025002018460E0431
:1021D000340ECEB200960127009EB7403D46022C39
:1021E00001D1001D02E0032C00D10830002A03D0E9
:1021F00006682E43066002E00668AE430660F8BD3E
:10220000F0B58BB004460D46002700200A9000264A
:1022100020684008400020606668032109033046BA
:1022200088430646A8680643666026682D4806402F
:10223000E968686808432969084306432660A66878
:102240000321090230468843064668690643A660B2
:102250006846FEF7C1FF2448844202D106980A90DE
:102260000DE02248844202D107980A9007E02048F6
:10227000844202D108980A9001E002980A902068EE
:102280000121C903084000280CD029680A9A50008F
:10229000FDF730FF074629680A9A5000FDF72AFF2C
:1022A0000E4609E029680A98FDF724FF07462968C9
:1022B0000A98FDF71FFF0E4628684008B04200D874
:1022C0007F1C20680121C9030840002806D0380778
:1022D000460F38460749084030430746A7810BB0F0
:1022E000F0BD0000F3E9FFFF00380140004400406A
:1022F00000480040F0FF0000CA05D20D028570477B
:10230000704770B504460D460020FFF71BFE032101
:10231000A020FFF7A3FBA106080E0621FFF79EFBF6
:1023200008212846FFF79AFB0120FFF70BFE00BFAC
:1023300000BF00BF00BF70BDF8B5002600253220E9
:10234000394908800127062038490870384839493A
:1023500008800B24384801780078401C364A1070F9
:102360003648475431480178104602780078401CBE
:10237000314B1870314881542E480088011218469C
:1023800002780078401C18702C4881542948017844
:10239000184602780078401C187028488154211291
:1023A000184602780078401C18702448815418465A
:1023B00001780078401C1A4610702048445410469A
:1023C00001781E48FEF72EF806461B480278007872
:1023D000401C194B1870194886543112184602785F
:1023E0000078401C18701548815400BF0DE000BFF4
:1023F0001348C069802108400028F9D00F48405D8B
:102400000F4920310881681C85B20B48007885424D
:10241000EDDB0020044908800A4908700A49087069
:1024200002200A490870F8BD1A000020140000209C
:10243000021100001600002045000020E2000020EC
:10244000004400401D0000201C0000201800002057
:1024500010B501214804FEF743FE01218804FEF770
:102460003FFE0121C804FEF73BFE01218805FEF76F
:1024700037FE1648FDF77AFE00200921C906C8601C
:10248000401E086000201249C860401E08600020FD
:102490001049C860401E086000200F49C860401EF7
:1024A0000860002101204004FEF71AFE00210120EF
:1024B0008004FEF715FE00210120C004FEF710FE87
:1024C000002101208005FEF70BFE10BD0024014015
:1024D0000004004800080048001400480FB410B57C
:1024E00003A9044B044A029800F02EF810BC08BC63
:1024F00004B01847D52A0008AC00002030B4744658
:10250000641E2578641CAB4204D3635D5B00E31852
:1025100030BC18471D46F8E710B50446204600F0C9
:1025200011F910BD02E008C8121F08C1002AFAD133
:1025300070477047002001E001C1121F002AFBD143
:10254000704780F310887047FFB58DB00F46054681
:10255000002606E025280AD0109A0F9990476D1C96
:10256000761C28780028F5D1304611B0F0BD002443
:102570000121674A009400E004436D1C2B78084653
:10258000203B98401042F7D128782E2815D10420FE
:10259000044368786D1C2A280AD101CF6D1C009075
:1025A0000BE000990A225143303940186D1C00900D
:1025B0002878014630390929F3D92878692843D089
:1025C00006DC0028D0D063280BD0642804D13BE07F
:1025D00073280FD075284CD0109A0F999047761C0D
:1025E00094E03878694608720020487202A8019089
:1025F000012003E0386801900020C0433F1D6107BF
:102600000CD5002400E0641C00998C420FDA84424F
:10261000F9DB0199095D0029F5D108E0002400E00B
:10262000641C8442FCDB0199095D0029F8D136194C
:1026300007E0019801990078491C0191109A0F99BF
:102640009047641EF5D261E00A20019001CF002876
:1026500002DA40422D2102E0210504D52B216A46F1
:102660001172012103E0E10701D02021F7E70C916D
:1026700004E00A20019001CF00210C910BA90B91DD
:1026800008E00199FDF736FD0A460B993032491EE4
:102690000B910A700028F4D10B9803A9081A203076
:1026A0000190600701D5009801E001200090019998
:1026B000884203DD01460198081A00E0002000244A
:1026C000009006E002A8109A005D0F999047641CE4
:1026D000761C0C988442F5DB04E0109A30200F99A8
:1026E0009047761C0099481E00900029F5DC08E010
:1026F0000B980B990078491C0B91109A0F999047F1
:10270000761C0199481E01900029F1DC6D1C28E718
:102710000928010001460A2901DB002070470C202E
:102720004843074A80184078012807D100220C202E
:102730004843034BC01842700120EFE70020EDE74B
:10274000B802002010B50446002C00D110BD012CA9
:1027500000D102240120FFF7F4FE094804600020A4
:1027600008490870FFF7EDFE06E000F08FF8054815
:102770000078012800D100E0F7E700BF00BFE5E7DF
:102780008C0000209000002070B5054628013149DA
:1027900044182068804700283FD02079052802DAB5
:1027A0000520207154E020790A2803DA2079401CA2
:1027B00020714DE0A07A002807D10120A0726900A5
:1027C0006918491CC8B200F019F9208900283FDDBA
:1027D000E088218988420DDAE088401C80B2E080E0
:1027E0002189884234D169006918C91CC8B200F037
:1027F00005F92DE0E07A00282ADD207B401CC0B2DC
:102800002073E17A884223DB002020736900691875
:10281000491CC8B200F0F2F81AE02079052802DD60
:102820000520207111E02079002803D02079401E76
:1028300020710AE0A07A012807D10020A072690067
:102840006918891CC8B200F0D9F80020E080207314
:1028500070BD0000980200200B48807A0A4AD27AA4
:10286000904201D1002070470748807A064A115CE7
:102870001046807A401CC0B290720A2801DB00200A
:1028800090720846EFE70000A8020020704710B5DC
:1028900000F003F800F044F810BD10B500F016F891
:1028A00000F002F810BD00001CB501218805FEF7FC
:1028B00017FC40200090002168460171C1716946F3
:1028C0000148FDF74DFE1CBD001400480021114ACF
:1028D0009172D1721173002015E0FF212D31020198
:1028E0000D4BD218118102210201D2181171002161
:1028F0000201D21891720201D218D1720201D218CB
:102900001173411CC8B20128E7DB0449024A116077
:1029100070470000A802002098020020B1090008BA
:1029200070B5002412E000210C2060431C4A80187E
:1029300041600C206043801881600C206043801847
:1029400041700C2060431154601CC4B20A2CEADBB5
:102950007D21C90013480068FDF7CCFB0546681EC1
:102960001149884201D901200CE0681E0F494861D5
:102970000321081FFEF744FB00200C498861072053
:1029800008610020002807D07C23094A09A10FA074
:10299000FFF7A4FD00BFFEE70420FFF723F970BD99
:1029A000B802002000000020FFFFFF0000E000E070
:1029B000302C00082E2E5C6273705C7372635C6254
:1029C00073705F74696D65722E6300004C6F673AB7
:1029D000205B25733A25735D206C696E65203D2070
:1029E00025640A0010B5002404E02046FFF7CCFE61
:1029F000601CC4B2012CF8DB10BD00000649C97A86
:102A0000054A50541146C97A491CC9B2D1720A29E3
:102A100001DB0021D1727047A802002010B5FFF73A
:102A2000E1FF10BD70477047416800290BD0416835
:102A3000491E4160002906D1012141700178012918
:102A400001D181684160704770B504460D460A2C7B
:102A500006DB104A10A116A0FFF740FD00BFFEE7FD
:102A60000120FFF76EFD0C206043194940184560B6
:102A70000C2060434018856000210C206043144AFC
:102A80008018417001210C20604311540020FFF791
:102A900058FD70BD4D2C00082E2E5C6273705C7367
:102AA00072635C6273705F74696D65722E6300009F
:102AB0004572726F723A2066696C652025732C200E
:102AC00066756E6374696F6E20257328290D0A0080
:102AD000B802002070B504460D46E1B20548FFF784
:102AE0000BFC00BF40210348FFF738FB0028F9D05A
:102AF000204670BD0038014070B504460D46294699
:102B00002046FFF7FEFB70BD00BF00BFFDF7E0FDF4
:102B1000FDF70AFFFEF73AF8C8210020FFF794FFFF
:102B200028490120FFF790FF4AE0FFF7AFFEFDF7CD
:102B30009FFB0020FFF7EEFD002811D02248808A7D
:102B4000042188432049097D4907C90FC9438900E9
:102B50000422114008431C4988821CA0FFF7BEFCD8
:102B60000120FFF7D7FD002806D01A4801681AA0F7
:102B7000FFF7B4FC00F052F8FFF76EFE0446002C9D
:102B80001CDD012C04D0022C12D0032C14D103E044
:102B900019A0FFF7A3FC10E0FFF7CEFB18A0FFF78A
:102BA0009DFCFFF71FFAFFF753FCFFF785F804E0E1
:102BB00017A0FFF793FC00E000BF00BFFDF7E6FAA7
:102BC000B3E70000204E00000004004868656C6C0C
:102BD0006F0A000000000020CFB5CDB3D4CBD0D019
:102BE000CAB1D6D3202020202020202020202564F8
:102BF00020487A0D000000006B3120646F776E0072
:102C00006C6F6E67206C6F6E67206C6F6E670A006A
:102C100055502055502055500A00000010B5FDF7C2
:102C200091FEFDF751FDFFF747F8FFF769FB10BD77
:102C30006273705F496E697454696D657200627386
:102C4000705F537461727454696D65720062737061
:102C50005F53746172744175746F54696D6572006D
:102C60006273705F53746F7054696D657200000019
:102C7000902C000800000020B0000000242500086F
:102C8000402D0008B0000020800600003425000818
:102C9000006CDC02000000000000000001020304E0
:102CA0000607080900000000000000000000000006
:102CB0000000000000000000F505B69747D3F3853B
:102CC000F7D700FFFA0AD69E2EBCFC1AFEBE00FF04
:102CD00000000000000000000000000000000000F4
:102CE00000000000000000000000000000000000E4
:102CF00000000000000000000000000000000000D4
:102D0000000000000000000000000A0000000000B9
:102D10000102030401020304060708090000000081
:102D200000000000000000000000000000000000A3
:102D30000000000000000000000000000000000093
:04000005080000C12E
:00000001FF
